:100000000C9434000C943D000C943E000C943F0082
:100010000C9440000C9441000C9442000C9443005A
:100020000C9444000C9445000C9446000C9447003A
:100030000C9448000C9449000C944A000C944B001A
:100040000C944C000C944D000C943C000C944E000D
:100050000C944F000C9450000C9451000C945200DE
:100060000C9453000C9454000FEF0DBF07E00EBF2B
:100070000FEF0AB90C94F80518951895189518956E
:100080001895189518951895189518951895189508
:1000900018951895189518951895189518951895F8
:1000A000189518951895189518950F9308E0990FBD
:1000B0000FB600FE5E9800FC5E9A5F985F9A0A9504
:1000C000B1F708E0660F0FB600FE5E9800FC5E9A7E
:1000D0005F985F9A0A95B1F708E0770F0FB600FEB8
:1000E0005E9800FC5E9A5F985F9A0A95B1F708E007
:1000F000880F0FB600FE5E9800FC5E9A5F985F9ACC
:100100000A95B1F70F91089568092000FFFFFF00DD
:1001100000FFFF00FF00FF000000FF00FFFF0000E6
:1001200000FF0000FF00000000000000560000007B
:10013000900000009077000090770000907700001A
:100140009077000090770000907700003077027081
:100150005E7700003077020002075C77000030779E
:10016000020002005C7700001277027002571A77D3
:1001700000067300020C7702004C77000012770231
:100180002002001C77000670000708770006700048
:10019000074A770000127700067000271C770200DC
:1001A0000200087700067200074A77000014770201
:1001B0000002071C77000670002708770220020261
:1001C0004A7700001477020002001E7702700202D4
:1001D0000877027002001E77000673233726770027
:1001E000001477027002000E77027002070E77008B
:1001F0001000077777777000271A7702732C770043
:10020000001477027002000E77020002070E7700DA
:100210001070007777777200071A77022708770245
:1002200037227700001677020002070A770006706F
:1002300000071077000E000077777700021877022A
:10024000722E7700001677020002070A770230024A
:10025000001277000E70000777777000187702277A
:100260002E7700001677022002040A7702000200AF
:100270001277001070000077777000072077000673
:10028000622226207700001677027002000A7702A9
:100290000002001477000E00000777720002147746
:1002A000001673777777766777666666671C7700E0
:1002B0000018770200020708770220020014770076
:1002C0000E700000777000001C770010677667776B
:1002D000777776671A7700001877020002000877B0
:1002E000023002021477000E72000007700000183E
:1002F0007700066776762877000018770010700080
:100300000777777770001677000C200000700000E8
:100310001477001627767766677777677777331CC9
:100320007700001A77000E00007777777000187753
:10033000000A00007700001277000C72776677667B
:1003400067086602671E7700001A77000E700000CB
:10035000777770001877000A700007700016770230
:100360006702760C66024402451C7700001C770089
:100370001600000777700007777777371077000847
:10038000000077021477027602770A660244085565
:100390001A7700001C77000A70000047770C0010E5
:1003A0007700065000071677026708660264024469
:1003B0000A550006577773147700001E770008006F
:1003C0000000770C0002070C770008707000001422
:1003D00077000E767666666644450E5518770000FF
:1003E0001E770008000000070C00000607700208D6
:1003F00077000A30070000051277000C7666666405
:10040000444510550257167700001E77000A700009
:100410000000700C00001870000007777700007073
:100420000000071077001066666444555555510862
:10043000110006555555167700001E77000C720006
:10044000000777770A0002070800001077000070A5
:10045000000000570C77000E766755445555550E31
:10046000110006155557147700002077002600006C
:1004700077000777700000000770000000047770B5
:1004800007080000187777777277777675455555A6
:10049000551611147700002077000E7007700000C9
:1004A00000070800027008000006077777080002BE
:1004B000070A7702660855001A1111113333777352
:1004C00031111111311712770000207700067007E3
:1004D00070100002700C000277027008000A7700AA
:1004E00024655555555111111331111113377313DB
:1004F0003111171277000022770207120002070E4F
:10050000000270080002070877000845555551128F
:1005100011000A3771133311127700002277027528
:100520000800020718000207080000100577777717
:1005300074555555081102130C33000A3731333105
:100540001710770000247708000270180002070ACD
:10055000000014777777745555511111111233003B
:1005600008773333171077000022770272240002D5
:100570007008000012077777655555111111143373
:10058000000837733331107700002277027324009C
:100590000270080000100777777555111111183394
:1005A000000A77333377370C770000247724000272
:1005B000070800001A057777555111111333337767
:1005C00077730E33000A37733377270C77000024D4
:1005D000772400020702700800000C77775511118C
:1005E00013083302370C77000E73333373333773CA
:1005F0000C7700002477022024000270080000100D
:1006000077777511313333371677000A73773317DD
:10061000730C7700002477022024000207080000F2
:100620000E777771131133331A77000A3733377720
:10063000370A770000247702302E00000C775731FC
:100640003113330C7702271077027302330E7700D1
:10065000001C77000A20777777702E00000C775700
:10066000131133370E7702730E77027302330E774E
:1006700000001A77000C7000077777702E00000AD0
:100680007753331337127702270C770008733377C9
:10069000720A7700001A77000C0000007777732C3D
:1006A00000000E077513313377270C770006727739
:1006B000720E77023302370C7700001877000E7342
:1006C0000007007777732C000010671133333772FF
:1006D00077320E77027302730C77023302370C778E
:1006E00000001877000E700000002777772C0000BC
:1006F00008731333330877027302371A7700103305
:100700003777377777777700001877000E73000018
:10071000000777772A00000A07711333370A770238
:10072000730C7702370C77027302370C7700001ACC
:1007300077000C0000000277772A00000A77133355
:1007400033370C7702730A7702270C770010733760
:1007500077727777777700001A770800027702734D
:100760002800000A077333333310770233167700FB
:1007700010733777772777777700001A77000C7038
:10078000000000077212000008777777720E0000F1
:100790000A7733333337167702271277000E337711
:1007A000777327777700001A7702701A00000C170A
:1007B00077773777770A00000A07733333372C7758
:1007C000027302370A7700001A7702701800001EC1
:1007D00007766777737777777000003777733332F0
:1007E0007702330A7700001A7702720A0002700A51
:1007F00000000807776676567700001A77027216AF
:1008000000027702675A7700001C77000800007723
:10081000700C00020702760A7702664A77000633F8
:10082000777700001C770008000077770C000277CC
:1008300002670C77026602274C7700001C771200D3
:10084000000A07777777760866507700001A7702F4
:100850007010000008077755770C6602670877026A
:1008600037447700001A7702701000000A77757716
:1008700055561066022648770000167700087377F1
:1008800077700A00001002077557755555460E66B9
:100890000262022646770000167700243770702720
:1008A00000000007105757757555544444460E66AE
:1008B000026202274477000016770014727007273F
:1008C0002000000070770A550018544444466777AA
:1008D000777666666662447700001477001600201B
:1008E0007777027777000007350C550018444444A9
:1008F0004666666777766662264277000012770062
:10090000180073772272007333700007310E5500A0
:100910001844447777776667777776622740770061
:10092000000A7702720E7700127200073337000751
:1009300071150C5500185777773777776677777783
:100940007626407700000A770008327772370877FA
:1009500000127200773333700131110A55001A7793
:100960007377777377777667777777764077000056
:100970001A77002270077733333700311111555140
:1009800055777755550A7702674877000000347726
:100990007777732223277777777377777077773333
:1009A0003333703111111555510A550257507700E4
:1009B00000087700062077071277000833333137B5
:1009C00008110A55567700000877020002271477AD
:1009D00000067337330A1102170E7700083777774E
:1009E000370A7702273C77000008770270167700F5
:1009F0001473377311113311111117107702734AE1
:100A0000770000207700162773771131137777333B
:100A100011175A7700001E77001827727777711325
:100A20001177676673175A7700001C770018727782
:100A3000777773273173177777325C7700002877E1
:100A4000000E733771377777375A770000207702B7
:100A5000370877000C7377317777735A7700002067
:100A600077001637777737777777673777735A77DF
:100A700000001E770012737777773377777772608D
:100A80007700003677027358770000907700009067
:100A9000770000907700009077000100FC018591BD
:100AA00095910895FC0165917591859194910895B2
:100AB000FC01849108950895CF93DF9300D000D076
:100AC000CDB7DEB79C838B8360E070E0CB010E94E2
:100AD00055001A8219822CC08B819C81FC01848173
:100AE000882F90E0A0E0B0E0582F4427332722273A
:100AF0008B819C81FC016581768189819A81880F37
:100B0000991F880F991F860F971FFC018081918183
:100B1000A281B381822B932BA42BB52BB06EBC0189
:100B2000CD010E94550089819A8101969A8389831B
:100B30008B819C81FC018081282F30E089819A8102
:100B4000821793074CF26FEF70E080E090E00E9414
:100B500055000F900F900F900F90DF91CF91089557
:100B60000F931F93CF93DF93CDB7DEB72A970FB6BE
:100B7000F894DEBF0FBECDBF9A8389834B835C831D
:100B80006D837E830F83188729873A8789819A81AD
:100B9000FC018481882F90E0A0E0B0E0582F44272A
:100BA0003327222789819A81FC01658176818F8193
:100BB0009885880F991F880F991F860F971FFC0132
:100BC00080819181A281B381822B932BA42BB52BA1
:100BD000B06EBC01CD010E9455002A960FB6F89464
:100BE000DEBF0FBECDBFDF91CF911F910F91089552
:100BF000CF93DF93CDB7DEB7C755D2400FB6F89489
:100C0000DEBF0FBECDBFCE018F5A9D4F20E9FC0144
:100C10002083CE018F5A9D4F9E012F5F3F4FFC01D5
:100C200036832583CE018F5A9D4F22E0FC01248319
:100C300088E091E00E944E059C01CE018F5B9D4FA4
:100C4000FC01318320838AE091E00E944E059C01E3
:100C50003695279536952795CE018F5B9D4FFC01E4
:100C6000358724878CE291E00E945205DC01CB019C
:100C70009E012F5B3D4FF90182839383A483B5834B
:100C800080E391E00E945205DC01CB019E012F5BC5
:100C90003D4FF90186839783A087B1878CE091E06F
:100CA0000E945B059C01CE018F5B9D4FFC01338749
:100CB000228784E391E00E945B059C01CE018F5B5B
:100CC0009D4FFC01378726879E012F5B3D4FCE014C
:100CD0008F5A9D4FB9010E946E06F6CFCF92DF92D8
:100CE000EF92FF920F931F93CF93DF93CDB7DEB7B1
:100CF00068970FB6F894DEBF0FBECDBF9E8B8D8B6D
:100D0000788F6F8B0DB71EB78DB79EB77C018F891B
:100D1000988DFC01848595859C0121503109388B83
:100D20002F87880F991F880F991F2DB73EB7281B53
:100D3000390B0FB6F8943EBF0FBE2DBF8DB79EB7CF
:100D400001969A8B898B19821A821B821C821E82C1
:100D50001D8218861F821E8626C08E85C82ED12C25
:100D60008F89988DFC01228533858E85882F90E0B0
:100D7000880F991F880F991F820F931F0E94520599
:100D8000DC01CB0149895A899601220F331F220FBA
:100D9000331F240F351FF90180839183A283B3830E
:100DA0008E858F5F8E878E85282F30E08F89988D76
:100DB000FC01848595852817390778F23AC28F8916
:100DC000988DFC012685378589819A81820F931F32
:100DD0000E9458058B8B8B89882309F478C01E8666
:100DE0008F89988DFC012685378589819A810196A6
:100DF000820F931F0E9458058C8B58C08E85882FB8
:100E000090E081709927009729F18D899E89FC01D6
:100E1000258136818D819E81880F991F880F991FAA
:100E2000280F391F8C89882F90E08F709927498966
:100E30005A89880F991F880F991F840F951FFC01ED
:100E400080819181A281B381F90180839183A28302
:100E5000B38324C08D899E89FC01258136818D81D3
:100E60009E81880F991F880F991F280F391F8C8921
:100E700082958F70882F90E049895A89880F991F31
:100E8000880F991F840F951FFC0180819181A28199
:100E9000B381F90180839183A283B3838D819E8185
:100EA00001969E838D838E858F5F8E879E858B892D
:100EB000981708F4A3CF89819A81AB81BC810296EF
:100EC000A11DB11D89839A83AB83BC83B2C18F8975
:100ED000988DFC012685378589819A810196820F3C
:100EE000931F0E9458058C8B8C89882F90E081304D
:100EF000910509F459C08230910509F47AC0009730
:100F000009F00EC18D899E890E945C058F819885AC
:100F1000019698878F831E821D8289819A81AB8179
:100F2000BC810296A11DB11D89839A83AB83BC83CA
:100F300080C18D899E89FC01258136818D819E81AC
:100F4000880F991F880F991F280F391F89899A893F
:100F5000FC0180819181A281B381F9018083918319
:100F6000A283B3838D819E819C0140E050E08F89F4
:100F7000988DFC0186819781A085B1852817390756
:100F80004A075B0759F48D899E890E945C051E8281
:100F90001D828F819885019698878F838D819E8190
:100FA00001969E838D8301C000008F8198859C01EE
:100FB00040E050E08F89988DFC0182819381A4816B
:100FC000B581281739074A075B0790F48D819E8108
:100FD0009C0140E050E08F89988DFC0186819781CB
:100FE000A085B185281739074A075B0708F4A1CF08
:100FF00032C18F89988DFC012685378589819A8138
:101000000296820F931F0E945805282F30E08D8191
:101010009E81820F931F9A8789878F89988DFC0103
:101020002685378589819A810396820F931F0E94B6
:101030005805282F30E08F819885820F931F9C8759
:101040008B8789859A859C0140E050E08F89988D37
:10105000FC0186819781A085B185281739074A0749
:101060005B0740F01A8619868B859C8501969C87C4
:101070008B873BC03AC08D899E89FC0125813681D2
:101080008D819E81880F991F880F991F280F391F06
:1010900089899A89FC0180819181A281B381F901BA
:1010A00080839183A283B3838D819E8101969E83E9
:1010B0008D838D819E819C0140E050E08F89988DC9
:1010C000FC0186819781A085B185281739074A07D9
:1010D0005B0759F48D899E890E945C051E821D82E2
:1010E0008F819885019698878F832F8138858B858E
:1010F0009C852817390741F02D813E8189859A8585
:101100002817390709F0B7CF89819A81AB81BC8153
:101110000496A11DB11D89839A83AB83BC8389C0CA
:101120008C8986958B8B1D8689819A81AB81BC8148
:101130000296A11DB11D89839A83AB83BC8362C0D3
:101140008F89988DFC012685378549815A818D8547
:10115000882F90E0840F951F820F931F0E945805DF
:101160008C8B8D899E89FC01258136818D819E81A4
:10117000880F991F880F991F280F391F8C89829516
:101180008F70882F90E049895A89880F991F880F9E
:10119000991F840F951FFC0180819181A281B381E9
:1011A000F90180839183A283B3838D899E89FC0199
:1011B000258136818D819E810196880F991F880F28
:1011C000991F280F391F8C89882F90E08F709927DD
:1011D00049895A89880F991F880F991F840F951F75
:1011E000FC0180819181A281B381F9018083918387
:1011F000A283B3838D858F5F8D878D819E810296BB
:101200009E838D839D858B89981708F499CF8B8950
:10121000882F90E0A0E0B0E029813A814B815C8189
:10122000820F931FA41FB51F89839A83AB83BC834E
:1012300000008F89988DFC01808191819C0140E0A4
:1012400050E089819A81AB81BC8182179307A40702
:10125000B50708F4B4CD0FB6F894FEBE0FBEEDBED0
:101260000FB6F8941EBF0FBE0DBF68960FB6F89468
:10127000DEBF0FBECDBFDF91CF911F910F91FF90C9
:08128000EF90DF90CF9008957C
:00000001FF
