:100000000C94F30F0C94FC0F0C94FD0F0C94FE0F4A
:100010000C94FF0F0C9400100C9401100C9402101F
:100020000C9403100C9404100C9405100C940610FE
:100030000C9407100C9408100C9409100C940A10DE
:100040000C940B100C940C100C94FB0F0C940D10D2
:100050000C940E100C940F100C9410100C941110A2
:100060000C9412100C941310FC0185919591089535
:100070000895FC0184910895FC0165917591859125
:1000800094910895D41E2400FFFFFF0000FFFF009D
:10009000FF00FF000000FF00FFFF000000FF000066
:1000A000FF00000000000000FFFFFF00E000000074
:1000B000900000009088000090880000688800068A
:1000C000777777228800006288028712771A880083
:1000D00000608802871877168800005E8802871AF9
:1000E000770278148800005E881E77148800005C10
:1000F0008802871E77148800005C8802871C7702BC
:1001000037148800005A880287107702730C770230
:1001100037148800005A8812770273083300067378
:100120003737148800002A880877027824880287E5
:1001300014770C3302371488000026881077027871
:100140002088028714770C33023714880000228835
:1001500002870A77000C7333333377771E880006E3
:10016000877771107702730A3302381488000022EF
:10017000880A7702730C3302771C88000887777728
:10018000170E7702730A3302781488000020880261
:10019000870A77103302771A880008877777170E57
:1001A0007702730A3302781488000020880A7702E5
:1001B0007312330278188800088777771710770A48
:1001C0003302781488000020880A7714330237023B
:1001D0007716880010877777177777777308770A0D
:1001E000330278148800001E88028708770273148F
:1001F00033000837777778128802870C77000C7302
:1002000033777777730833168800001E88028708D3
:1002100077000C3333333773370C33000877777735
:1002200078108802870C77000C7333337777730864
:1002300033168800001E8802870877000C3333339A
:100240003773770C33000877773337108802870CC1
:1002500077000C3333337777730833168800001E2A
:10026000880877000E733333333737730A33000C43
:100270007777777333780E8802870C7700143333DF
:100280003337777733333337168800001E88087783
:10029000001833333337777773773333333708774F
:1002A000023302370E880022877777177777333348
:1002B000333137777733333338168800001E8800A0
:1002C0002C777777733333337777773777773333A1
:1002D00077717777177337108800207771177777E2
:1002E0007733333377777733333378168800001ECC
:1002F00088000E777777733333370E7700103377B4
:10030000717737717737108800067771170C77008F
:100310000E78777733333378168800001E88001004
:1003200077777733333378870C77001073775733C9
:1003300037771737108802871077000C7887773364
:100340003333188800001E880014777773333377AF
:100350008888888708770010737777333377573723
:10036000108802870E77000E378887773333371867
:100370008800001E88000C7777733337780888026E
:10038000870C77000A733377737810880877001624
:100390007333333337888877733337188800001EF8
:1003A00088000A77773333770C880C77000A733725
:1003B00077577810880287087700143333337888AA
:1003C0008877733338188800001E88000A777733DF
:1003D00033780C88028712771288001E877777732C
:1003E0003777333788888887733138188800001E3C
:1003F00088000877773337108802871077128800D3
:100400000E87777773337777088800088773337898
:10041000188800001E8800087773337812881077D8
:100420001288000E777777733333770A8802730266
:10043000131A8800001E880006777337148800108E
:1004400087777777717711781088001287777777B9
:1004500073773333780888027302371A8800001ED6
:100460008800067773781488000E87777777711184
:1004700017128800128777777773733333380888B9
:10048000028702781A8800001E88027702371688D1
:100490000E77027810880877000A733333333726D3
:1004A0008800001E88028702771488028708770078
:1004B00008733333370E8802870877000A73337363
:1004C0003333268800001E8802870278148802874A
:1004D00008770008733333330E880A770A330278BB
:1004E0002488000036880A77000A73733333780A49
:1004F0008802870E770008333333382488000036AB
:10050000880A77083302370A8800068773370C7722
:1005100000067313332488000036880E77000633F4
:1005200033370C8802870877000E7377337771139F
:100530007822880000348802871077023302370E51
:10054000880C770008337777132488000036880CEE
:100550007700087377773310880A77000813777766
:100560003724880000388802870E77027302780EDD
:10057000880A7702172A8800003A8802870E7710C7
:10058000880877027302172A8800003A8802870ACF
:1005900077027812880877027302782A8800003A76
:1005A0008802870A770278088802780888000C7722
:1005B00077733773782A8800003A880A77023708F9
:1005C00088001687778888888777777333772C88B1
:1005D00000003688027802870C7708880008877741
:1005E00088880A7702332E880000368802780287CE
:1005F0000C77088800067777870E77000A88888846
:1006000057782488000036880E770278088800061C
:100610007777870A77000C75151787751726880076
:1006200000348802780E77000A78888878881077F6
:10063000000C711117777118268800003488027831
:100640000E77000A587787577810770010711117C6
:10065000771178857822880000348814770006871F
:100660005717107700101151777515881178228867
:100670000000348812770008718757151077000E34
:10068000115177711785172488000034880287106C
:10069000770008557557170E7700107511517511B1
:1006A00018717824880000348802871077000817B2
:1006B0007575170E77000E71155171118811268806
:1006C00000003488028710770008177171170E77C1
:1006D000000E71151151157117268800003488021B
:1006E0008710770008177571170E77000E11151116
:1006F0005117717826880000348802870C77000A29
:1007000075771775711077000C1115151177112871
:10071000880000348802870C77000A7177175771B8
:100720001077000C115515117117288800003488B6
:100730000E77000A75751757111077000C115115B7
:100740001771172888000034880E77000A757557CE
:1007500057110E77000E711151511711782888002A
:1007600000348810770008717757170A77001271E4
:10077000777115515151117828880000348810770D
:100780000008717757170A77001075757115515168
:1007900011172A88000034881077000871777117C4
:1007A0000A77001075557115111111172A8800006C
:1007B00032880287107700067577710C7700101762
:1007C000155155151111182A880000328802871416
:1007D0007702510A77001275171711551111117808
:1007E0002A88000032880287147702110A770012E3
:1007F0007557171151111111782A8800003288029B
:1008000087147702170A7700107177151151575125
:10081000152C88000032881477027502570A770079
:100820001075777711117777172C8800003288229E
:1008300077001057777711777737782C8800003258
:10084000882677000C7371777773782C88000030D6
:100850008802872877000E15777771777778288850
:10086000000030880287167700067333330C770256
:10087000110877027302382888000030880272025B
:1008800037087702330A7700087333333714770059
:10089000067338872688000030880272023708778E
:1008A00000127333377777777333331077000E1175
:1008B000777377388777248800003088027602378C
:1008C0000877001273333377777773333308770001
:1008D00016757777771177717777773324880000EB
:1008E00030880287023708770012733333777777BF
:1008F000733333087700165557777750177017738F
:100900007713248800002A88000A877777772308DE
:1009100077001273333377777773333308770016A2
:100920007157777771175007177317248800002ABB
:1009300088000A7667777723087700127333337756
:1009400077777333371277000C11711001717724A8
:100950008800002A88000A87277777730877003095
:100960007333333777777333377777737777757771
:100970007777507115001178248800002C880008C2
:10098000637777720A7700103333377777333337EB
:1009900008770014111777777770570000172688AB
:1009A00000002C88000A72777772370877001033BE
:1009B00033377777333337087702110A7700080522
:1009C000101007268800002A88000C777737777781
:1009D000370877001033333777773333371477009E
:1009E0000870011007268800002888000E777777A6
:1009F000377777370877000E333337777733331805
:100A0000770006111117268800002888000E7777D6
:100A10007773777733087700143333377777333347
:100A20007777331277000671171726880000288819
:100A3000000E877777737777730877001233333731
:100A400077773333777708330E7702150278268865
:100A500000002A88000C7777773777730877001CB7
:100A600033333377773333777333333331370C772B
:100A700002110278268800002A880040877777379D
:100A80007773377777777333337777333377733396
:100A900033331133773777777555717826880000AF
:100AA0002A88002487777773777737777777733358
:100AB000337777333377083300141331311777776F
:100AC00077555178268800002C880A7700343777CC
:100AD0007777733333777733337733333331331374
:100AE0003137777777171717268800002C88003062
:100AF00087777737777377777773333377773337CA
:100B00007333333331333317087700061711512607
:100B10008800002E88000A77777377730877002C97
:100B2000333377773337733333331333317787770F
:100B3000777717711178248800002E880020877736
:100B4000737777377777773333377733377308337C
:100B50000016131778877777771571151724880093
:100B6000002E88002087777737773777777733338A
:100B70003777333373083300063137880877000836
:100B800071751111248800003088107700087333C4
:100B900037770E3300061378880877000A717711CB
:100BA0007578228800003088001887777777737708
:100BB0007777733337770C330008313788870877B6
:100BC000000A71775117182288000032880E7700CA
:100BD00008733333770E3300067888870877000A66
:100BE000711771177522880000328802870C770010
:100BF00008733333770E33027802880E7700087556
:100C00001177782088000034880C7700087333331C
:100C1000770C330008178888780E770006117777ED
:100C200020880000348802870C77001A73337737E6
:100C30007733333331378888880A77000A7377111E
:100C400017872088000036880E770018733777776B
:100C500077333331788888870A77000A737771177A
:100C600078208800002E88000A788888888718777E
:100C700000143333788888875777773708770217D7
:100C80000277208800002E88000A778888888718D5
:100C900077002073378888888777777773777787A7
:100CA000778777208800002E880008778888880852
:100CB0007702710A77000A1177117777088802772F
:100CC00002870877000888777877208800002E88C8
:100CD000002677788888777177771777711777711B
:100CE0007777711777088800147787777777338855
:100CF000777878208800002E880028777788887792
:100D000071777177777717777777377317777808F1
:100D1000880012877777771788777878208800009F
:100D200018880008878888870E8800087777788871
:100D30000A77001637771777777337771771780840
:100D400088001087777777378877782288000016B1
:100D500088000A87778888770E88002877777888D0
:100D600077777737777777177717733777177178BC
:100D700008880A7702880277248800001688000A0B
:100D800077778888770E88000C7777778877570E83
:100D9000770016177777771771188888888708770C
:100DA0000237288800001488000C877777888878B5
:100DB0000E88000C8777777877750A770271087745
:100DC000001A750777777888888777777337372899
:100DD0008800001488000C8777778887781088004F
:100DE0000A77777887750A7700241177717777719A
:100DF00017773337888887777777333328880000E9
:100E00001288000E87887777888778108800128785
:100E1000777788771777771708770014111111778C
:100E20007733137888870877023328880000128880
:100E3000000E77887777788778128800147777782C
:100E4000775177777755710E77001433313788777C
:100E500077333777772888000010880014877788E1
:100E6000777778877888780E88000A77777787751C
:100E7000087702710E770273023308770008333364
:100E8000777728880000108800148777887777782C
:100E9000878887780A7700187888877777887777C0
:100EA000777577710E77027302370877000A33334C
:100EB0007777372688000010880012877788777741
:100EC0007877888716770010787777777577751732
:100ED0000E7702330877000C7333777333782488E6
:100EE00000001088001087778877777877881A77DE
:100EF00002870A7702170C77023702370877000A51
:100F000073337773372688000012880877000678D5
:100F100078882677002417771777737777373377B2
:100F200037777773337773372688000012880A770C
:100F300002781077023316770026577771157733CA
:100F40007773737773777773337773377824880081
:100F50000012880E770271087700063377731677D0
:100F600000265177777517337773337773777773F5
:100F700033773333372488000012880E770217083E
:100F800077027302371877002871777777577337AE
:100F90007733377337777333773333137822880097
:100FA0000012880C7702750C7702330A7702370C2F
:100FB00077002671777777177733773337773777F7
:100FC0007333773333172488000012881A77000EA2
:100FD000337733777777330C770026717777771706
:100FE00077333773337737777333773331782488B0
:100FF0000000128818770008731777730877023794
:101000000A770024757777771777333373337777D9
:1010100077733377133326880000128802870C77A2
:101020000012137773333333778887087702730C92
:101030007700221777775777377377333777777358
:10104000337713782688000012880C770020717798
:1010500077773333777888877733777777370A7777
:1010600002570877001837737733377777773373FA
:1010700013782688000012880A77001A75177711EE
:101080001777778888887773331E770006717773B0
:1010900008770008137333782688000012880877D1
:1010A000000C7555771577780A8800067733331A60
:1010B00077000A73773177730877000813733378F2
:1010C0002688000012880C77000A111777777808B5
:1010D000880008873333371C77021102170A77001C
:1010E0000833313338268800001288107702110245
:1010F000770E88027702331C77021102170A7700F5
:10110000083331337826880000108802870E77165E
:101110008802870233167700061771110C770008D2
:101120003333337826880000108802870A7702510B
:1011300002571A8802330237147700167111737739
:101140007773773733313728880000108802870A91
:10115000770006511178088800067777770A8800AB
:10116000068733371277001635177377777337375B
:1011700033313728880000108802870A770006710B
:10118000111708880008877777770A880287023363
:101190001277001655177337777733333331782842
:1011A000880000108802870C77002411177888883F
:1011B000888777777778887888888887731077002A
:1011C0001E717777377737333333137887777777AD
:1011D00020880000108802870E7700223177777709
:1011E000788877777778887888877887781677020D
:1011F000370277083302130A7700068888880A774F
:101200001088000012880877000875777733087710
:10121000001E887777777887388887787778887717
:10122000370C77001271777777333333313708779C
:101230000008888888870C7702780C88000012885C
:101240000A7702170C77001C7887777378873788BE
:101250007778777777330E77021108730006333388
:10126000110877000878888888107702780A880043
:1012700000128802870877001E7333377777731759
:101280003787777377877788087702331077001E60
:101290001777337333333117577777778888881206
:1012A0007702780A88000014880A770026133337FB
:1012B00088873113887777778773787777733337B1
:1012C0000C770022767711777333333331771157E8
:1012D000777788888710770E88000014880287083F
:1012E00077002433777777888713887777778777BE
:1012F00038777333330E77002064731111777333AB
:101300003337711777777888881077108800001442
:10131000880008877777730A77001A788877887744
:1013200077778877777733330E77002274471111F8
:10133000711111777771117777778888870E771217
:1013400088000016880008777773370A77001878C6
:1013500088887777777877777773370E77002000EC
:101360007771557111171115711111777888880EE1
:1013700077148800001688000A77177333710A778C
:1013800000068888870C77027302370E77002017D3
:101390007777571177887511177771177888870CC9
:1013A000770278148800001688001A77177773710F
:1013B00018877377777887870C7702331477001A4A
:1013C000717777788887771177777878880C7702C4
:1013D0007816880000168800288777777331188878
:1013E0008777317887777777377777733714770010
:1013F0000A11777778880A7700068888870A770243
:101400007818880000168800268775177737788740
:101410007883117888777333337777731477000C78
:10142000115777773788087700067888880C771AFD
:101430008800001688000C7771177773780877009A
:101440000C8888773133331877000E7117777773EC
:101450003887087700068888870A771C8800001676
:1014600088000C7777887773370877000C88887145
:101470001113331477001076777777737733880AF0
:1014800077028802880A7702781C88000016880094
:101490000C7737887777130A77000A88315113332E
:1014A0001677000E765777777117880877000678D9
:1014B0008887087702781E88000016880020773712
:1014C00088777771113777777773177113371877B4
:1014D0000008677771110C77028802880A772088E4
:1014E000000016880020777788777773331777772F
:1014F0007773177113371877000667711108770033
:101500000A17777788870877228800001688000CEA
:101510008773788777370A77000A71171133370C8A
:101520007702730233087702760A77000A11177779
:1015300078880877000C7888888877781888000081
:101540001688001E87733887773388888877777185
:101550001111330C770008733333330877001467A5
:101560007777777117777788870877000688888775
:1015700008770278148800001688000C777737887F
:1015800077330888000A77711113370A77002473BC
:101590003311133337773777677777771177777822
:1015A00088087700068888870E77128800001288DE
:1015B000001087777777137777370888000A877363
:1015C0003333370A770030733111111333773377A0
:1015D000777771101777777887777777788887129A
:1015E0007710880000108802871077088800088725
:1015F0007333330C7700223311551111337773771E
:101600006710001777777788087702880287167740
:1016100002780C8800000E8802871477000C788806
:10162000887773330E77002C331577511133377366
:1016300077667117777777788777777788871677E0
:10164000108800000C8802871877027802881477C7
:1016500000163115775111333773777667087700A5
:101660000C7877777778881477148800000C881CBA
:10167000770278127700187333115511111337332D
:101680007766661077028810770278188800001451
:10169000882877027302330811000C1337337766FA
:1016A000660E77028810771C880000188802871061
:1016B00077027312770016333111100011773377E8
:1016C00066660C77027802870C77208800001C88F9
:1016D00002870C7702731277001673331110000320
:1016E00073337766671A7722880000208802871292
:1016F000770276087700167333311000177333774B
:101700006667167702780A880283188800002488A2
:101710000877000A73777777720A770014333310EB
:10172000037773337666671477288800002688026B
:1017300087107702761077000A7333766667127720
:101740002A8800002888001A87677377776677668B
:1017500076677733370877000A73377666670E77D0
:1017600002782C8800001C88000C8777777788889F
:101770000A77000E667767766777730833000A3753
:10178000733762660E77000A88887777780A88024E
:10179000831A8800001C88147700223766776777E1
:1017A0006777777333333203223762261877000A5C
:1017B00078888888831C8800001A88127700107146
:1017C000733772677777670877000E3333320237E3
:1017D0002227167702780888023202381A88000019
:1017E0001888028710770008711177330877000690
:1017F0006677730A7700087377006716770A88029E
:101800008302331A88000018881277021102170A1F
:101810007700187666777773777773766770021636
:101820007702780C8802331A880000168802871025
:1018300077027102150E770016277777367373716A
:1018400036000007167714880233148800001688C3
:101850001277021112770012377777711777767740
:1018600000167702781088000683388314880000F9
:101870001488028710770211147700103777777772
:101880007667771118771288028302231688000082
:101890001488027702770A8800068771170888186B
:1018A0007702710217087700103337717733778822
:1018B0007812880283023816880000228802770294
:1018C00011108802870877000A713777311308777B
:1018D00000067333330877308800002088000687BD
:1018E0007118108802870877001811173337777737
:1018F000177777773333087730880000208802879E
:1019000002171088000E777777737771110A7700C6
:10191000147177777773337771771812880006839D
:1019200033380888027402070C880000208802718E
:1019300010880C7700227117771777777771777790
:101940007773377101115810880833000E38888872
:10195000700000780A880000208802780E880A77D4
:1019600000063777110C770014717777773337706B
:101970007100780E8802830A33000C8887000040CB
:10198000070A8800001E8802870E880E77000A71F9
:10199000177777330C77000C177777007317108859
:1019A00000223337666667333330000700007888DB
:1019B00088888800002C8802870E7702110E770035
:1019C000127177771077700733370E8802830233EE
:1019D0000866001863330330000000688888888830
:1019E00000002C880A770008787771170E770012AC
:1019F0007177377500007331780C88000673833671
:101A00000A66000C3333330006780A8800002C88FD
:101A10000A770028887711787777717717777707B3
:101A200077333777733333780C8800060033360A00
:101A30006602330233128800002E880022777777FF
:101A400078877717887777717771111177770A33ED
:101A5000021302780A880008870033760A66027348
:101A600002381288000030880014777788877178F0
:101A7000888777170A7702730833021102170C88D8
:101A800000068403330C66026302381288000032B9
:101A90008800087788871708880C77083300063194
:101AA00011780C8800068000330C6602630238123D
:101AB0008800003688027702180A88000A8777773C
:101AC00077730833021002170E88000860088376C7
:101AD0000A660273023812880000368802710278A2
:101AE0000C8800067777770833000A31017777771B
:101AF0000A880008878833360A660233023812885B
:101B00000000368802771088001A777777733333AE
:101B1000333773333377780A88028302360A6602D2
:101B2000330238128800003688027814880018774B
:101B300077777377733333113337780888028302EA
:101B4000330866000863333778108800004E880039
:101B50001677777337733777731111780A88001403
:101B6000333666666733330000670E8800004E88A0
:101B7000001677777333773337778730070A880C07
:101B800033000A30320000470C8800004E880018ED
:101B90007777377377333333788710780888022064
:101BA0000833000E388007000000780A8800004CD7
:101BB00088001A8777773773377333333788877896
:101BC0000888001803338833888884077000000071
:101BD0000A8800001C8802782E88002677777337E1
:101BE000333337733311378877888888860730080E
:101BF0008800168700770000000788888888000022
:101C00001C88028702782A88002A877777737733BF
:101C100033337333301378878888888203007808D9
:101C20008802000206080000087888888800001CE6
:101C30008800068777782888001A77777733773394
:101C4000333377337301370888000870370078081A
:101C50008800143000700040007888888800001EDA
:101C60008800067777772488002C87777773377713
:101C70003333333771333013788888887070007845
:101C8000088800148000770000000788888800001A
:101C90001E880008877777772088002E87777777E8
:101CA0003377733733373783033103788888887005
:101CB000060068088800148300007000000488880B
:101CC00088000020880A771A880030877777773372
:101CD00037777377333737871033007888888700F2
:101CE0000000480A880012700004000000888888FC
:101CF0000000208802870C7712880A77002A731365
:101D00007877337733377388301310788888870073
:101D10007000780A880012800007400000788888E8
:101D2000000022882477002E737731378777377742
:101D30003337738870031178888887066000780AC3
:101D400088001287000074000078888800002288CC
:101D500002872077003073377113787773377333C6
:101D600037737883011388888880070000780C888F
:101D700000107000004000788888000022880287E8
:101D80001E77003073377311788777338773331773
:101D90007378870017888888800000000E88028783
:101DA00008000006088888000024881C7700327329
:101DB00037731137888777178773331783788700CE
:101DC00017888888700000071088000E70000000D7
:101DD0000888880000248802871E77002E31378803
:101DE0008877737887733337833888307888888822
:101DF000700700071088000E870000000788880021
:101E00000026881C77003073778888877737887733
:101E100073333783388820788888887000000812E8
:101E200088000C7000000788880000268802871C44
:101E300077001E888888777378887773313783387E
:101E4000880108880008704000781288000C87001C
:101E500000058888000028881A77002088888887ED
:101E60007777888777731038833888330888000637
:101E70007040001688000A700007888800002888D3
:101E80000287147702780888001A7777788887772E
:101E900073337887388878088800067000071888B8
:101EA00000086007888800002A8812770A88001CCA
:101EB000777777888877777337788778887808880E
:101EC0000006700008188800088707888800002C22
:101ED00088028708770E8800188777777888877751
:101EE00077733788870E8800067000781A88000696
:101EF00077888800004488000C777778888887087E
:101F000077028802870E8802700200228800004251
:101F100088000C7777778888880877000678888724
:101F20000E8802700207228800004088000E877722
:101F300077888888870877148802800208228800BA
:101F4000003E88000677777708880877027814883B
:101F500002810278228800003E8802770A88000AFF
:101F6000877777777816880287248800004A880068
:101F700006777777408800004A8802784488000016
:101F800090880000908800010F9308E0990F0FB629
:101F900000FE5E9800FC5E9A5F985F9A0A95B1F722
:101FA00008E0660F0FB600FE5E9800FC5E9A5F9830
:101FB0005F9A0A95B1F708E0770F0FB600FE5E98BA
:101FC00000FC5E9A5F985F9A0A95B1F708E0880F67
:101FD0000FB600FE5E9800FC5E9A5F985F9A0A95C5
:101FE000B1F70F9108950FEF0DBF07E00EBF0FEF90
:101FF0000AB90C94141018951895189518951895F9
:102000001895189518951895189518951895189568
:102010001895189518951895189518951895189558
:102020001895189518951895CF93DF93CDB7DEB70F
:10203000C755D2400FB6F894DEBF0FBECDBFCE015C
:102040008F5A9D4F20E9FC012083CE018F5A9D4F6E
:102050009E012F5F3F4FFC0136832583CE018F5AAF
:102060009D4F22E0FC01248384E890E00E9434002C
:102070009C01CE018F5B9D4FFC013183208386E85C
:1020800090E00E9434009C0136952795369527955F
:10209000CE018F5B9D4FFC01358724878CEA90E051
:1020A0000E943C00DC01CB019E012F5B3D4FF901FA
:1020B00082839383A483B58380EB90E00E943C00ED
:1020C000DC01CB019E012F5B3D4FF9018683978395
:1020D000A087B18788E890E00E9438009C01CE017B
:1020E0008F5B9D4FFC013387228784EB90E00E9439
:1020F00038009C01CE018F5B9D4FFC0137872687FE
:102100009E012F5B3D4FCE018F5A9D4FB9010E941A
:102110008A10F6CFCF92DF92EF92FF920F931F9328
:10212000CF93DF93CDB7DEB768970FB6F894DEBFD5
:102130000FBECDBF9E8B8D8B788F6F8B0DB71EB76B
:102140008DB79EB76C018F89988DFC01848595852C
:102150009C0121503109388B2F87880F991F880FD8
:10216000991F2DB73EB7281B390B0FB6F8943EBF09
:102170000FBE2DBF8DB79EB701969A8B898B1982A2
:102180001A821B821C821E821D8218861F821E8656
:1021900026C08E85E82EF12C8F89988DFC01228532
:1021A00033858E85882F90E0880F991F880F991F9F
:1021B000820F931F0E943C00DC01CB0149895A89A0
:1021C0009701220F331F220F331F240F351FF901F0
:1021D00080839183A283B3838E858F5F8E878E8564
:1021E000282F30E08F89988DFC01848595852817EC
:1021F000390778F239C28F89988DFC012685378599
:1022000089819A81820F931F0E9439008B8B8B8961
:10221000882309F478C01E868F89988DFC01268555
:10222000378589819A810196820F931F0E94390018
:102230008C8B58C08E85882F90E081709927892BD0
:1022400029F18D899E89FC01258136818D819E81B0
:10225000880F991F880F991F280F391F8C89882F85
:1022600090E08F70992749895A89880F991F880FA4
:10227000991F840F951FFC0180819181A281B381F8
:10228000F90180839183A283B38324C08D899E89C1
:10229000FC01258136818D819E81880F991F880FD1
:1022A000991F280F391F8C8982958F70882F90E095
:1022B00049895A89880F991F880F991F840F951F84
:1022C000FC0180819181A281B381F9018083918396
:1022D000A283B3838D819E8101969E838D838E859B
:1022E0008F5F8E879E858B89981708F4A3CF89818D
:1022F0009A81AB81BC810296A11DB11D89839A830D
:10230000AB83BC83B1C18F89988DFC01268537854D
:1023100089819A810196820F931F0E9439008C8BCC
:102320008C89882F90E08130910509F458C0823063
:10233000910509F479C0892B09F00DC18D899E8919
:102340000E94AA138F819885019698878F831E8299
:102350001D8289819A81AB81BC810296A11DB11D2C
:1023600089839A83AB83BC837FC18D899E89FC015D
:10237000258136818D819E81880F991F880F991F35
:10238000280F391F89899A89FC0180819181A28156
:10239000B381F90180839183A283B3838D819E8170
:1023A0009C0140E050E08F89988DFC0186819781E7
:1023B000A085B185281739074A075B0759F48D892D
:1023C0009E890E94AA131E821D828F819885019684
:1023D00098878F838D819E8101969E838D838F81C7
:1023E00098859C0140E050E08F89988DFC018281A6
:1023F0009381A481B581281739074A075B0708F044
:1024000046C18D819E819C0140E050E08F89988D6E
:10241000FC0186819781A085B185281739074A0775
:102420005B0708F4A2CF33C18F89988DFC01268504
:10243000378589819A810296820F931F0E94390005
:10244000282F30E08D819E81820F931F9A87898784
:102450008F89988DFC012685378589819A8103961D
:10246000820F931F0E943900282F30E08F819885BA
:10247000820F931F9C878B8789859A859C0140E0FA
:1024800050E08F89988DFC0186819781A085B18568
:10249000281739074A075B0708F442C01A861986CD
:1024A0008B859C8501969C878B873AC08D899E89F8
:1024B000FC01258136818D819E81880F991F880FAF
:1024C000991F280F391F89899A89FC018081918180
:1024D000A281B381F90180839183A283B3838D812B
:1024E0009E8101969E838D838D819E819C0140E01B
:1024F00050E08F89988DFC0186819781A085B185F8
:10250000281739074A075B0759F48D899E890E946D
:10251000AA131E821D828F819885019698878F83CA
:102520002F8138858B859C852817390741F02D81AF
:102530003E8189859A852817390709F0B7CF8981A7
:102540009A81AB81BC810496A11DB11D89839A83B8
:10255000AB83BC8389C08C8986958B8B1D868981D2
:102560009A81AB81BC810296A11DB11D89839A839A
:10257000AB83BC8362C08F89988DFC01268537852B
:1025800049815A818D85882F90E0840F951F820F95
:10259000931F0E9439008C8B8D899E89FC012581B7
:1025A00036818D819E81880F991F880F991F280F72
:1025B000391F8C8982958F70882F90E049895A89BC
:1025C000880F991F880F991F840F951FFC01808128
:1025D0009181A281B381F90180839183A283B38326
:1025E0008D899E89FC01258136818D819E81019690
:1025F000880F991F880F991F280F391F8C89882FE2
:1026000090E08F70992749895A89880F991F880F00
:10261000991F840F951FFC0180819181A281B38154
:10262000F90180839183A283B3838D858F5F8D872A
:102630008D819E8102969E838D839D858B899817BF
:1026400008F499CF8B89882F90E0A0E0B0E0298131
:102650003A814B815C81820F931FA41FB51F898330
:102660009A83AB83BC8300008F89988DFC018081A5
:1026700091819C0140E050E089819A81AB81BC81CD
:1026800082179307A407B50708F4B5CD01C0000071
:102690000FB6F894DEBE0FBECDBE0FB6F8941EBFC7
:1026A0000FBE0DBF68960FB6F894DEBF0FBECDBF4C
:1026B000DF91CF911F910F91FF90EF90DF90CF901E
:1026C00008950F931F93CF93DF93CDB7DEB72A976B
:1026D0000FB6F894DEBF0FBECDBF9A8389834B83BC
:1026E0005C836D837E830F83188729873A8789816E
:1026F0009A81FC018481882F90E0A0E0B0E0582FFF
:1027000044273327222789819A81FC0165817681BC
:102710008F819885880F991F880F991F860F971FA3
:10272000FC0180819181A281B381822B932BA42B08
:10273000B52BB06EBC01CD010E94C40F00002A96DB
:102740000FB6F894DEBF0FBECDBFDF91CF911F91C2
:102750000F910895CF93DF9300D000D0CDB7DEB7AF
:102760009C838B8360E070E0CB010E94C40F1A82CF
:1027700019822CC08B819C81FC018481882F90E080
:10278000A0E0B0E0582F4427332722278B819C817B
:10279000FC016581768189819A81880F991F880F54
:1027A000991F860F971FFC0180819181A281B381BF
:1027B000822B932BA42BB52BB06EBC01CD010E94B4
:1027C000C40F89819A8101969A8389838B819C8128
:1027D000FC018081282F30E089819A81821793073C
:1027E0004CF26FEF70E080E090E00E94C40F0000B8
:0E27F0000F900F900F900F90DF91CF910895F2
:00000001FF
